{
  "contractName": "DStorage",
  "abi": [
    {
      "inputs": [],
      "payable": false,
      "stateMutability": "nonpayable",
      "type": "constructor"
    },
    {
      "anonymous": false,
      "inputs": [
        {
          "indexed": false,
          "internalType": "uint256",
          "name": "fileId",
          "type": "uint256"
        },
        {
          "indexed": false,
          "internalType": "string",
          "name": "fileHash",
          "type": "string"
        },
        {
          "indexed": false,
          "internalType": "uint256",
          "name": "fileSize",
          "type": "uint256"
        },
        {
          "indexed": false,
          "internalType": "string",
          "name": "fileType",
          "type": "string"
        },
        {
          "indexed": false,
          "internalType": "string",
          "name": "fileName",
          "type": "string"
        },
        {
          "indexed": false,
          "internalType": "string",
          "name": "fileDescription",
          "type": "string"
        },
        {
          "indexed": false,
          "internalType": "uint256",
          "name": "uploadTime",
          "type": "uint256"
        },
        {
          "indexed": false,
          "internalType": "address payable",
          "name": "uploader",
          "type": "address"
        }
      ],
      "name": "FileUploaded",
      "type": "event"
    },
    {
      "constant": true,
      "inputs": [],
      "name": "fileCount",
      "outputs": [
        {
          "internalType": "uint256",
          "name": "",
          "type": "uint256"
        }
      ],
      "payable": false,
      "stateMutability": "view",
      "type": "function"
    },
    {
      "constant": true,
      "inputs": [
        {
          "internalType": "uint256",
          "name": "",
          "type": "uint256"
        }
      ],
      "name": "files",
      "outputs": [
        {
          "internalType": "uint256",
          "name": "fileId",
          "type": "uint256"
        },
        {
          "internalType": "string",
          "name": "fileHash",
          "type": "string"
        },
        {
          "internalType": "uint256",
          "name": "fileSize",
          "type": "uint256"
        },
        {
          "internalType": "string",
          "name": "fileType",
          "type": "string"
        },
        {
          "internalType": "string",
          "name": "fileName",
          "type": "string"
        },
        {
          "internalType": "string",
          "name": "fileDescription",
          "type": "string"
        },
        {
          "internalType": "uint256",
          "name": "uploadTime",
          "type": "uint256"
        },
        {
          "internalType": "address payable",
          "name": "uploader",
          "type": "address"
        }
      ],
      "payable": false,
      "stateMutability": "view",
      "type": "function"
    },
    {
      "constant": true,
      "inputs": [],
      "name": "name",
      "outputs": [
        {
          "internalType": "string",
          "name": "",
          "type": "string"
        }
      ],
      "payable": false,
      "stateMutability": "view",
      "type": "function"
    },
    {
      "constant": false,
      "inputs": [
        {
          "internalType": "address",
          "name": "_addr",
          "type": "address"
        },
        {
          "internalType": "string",
          "name": "email",
          "type": "string"
        },
        {
          "internalType": "string",
          "name": "password",
          "type": "string"
        }
      ],
      "name": "createUser",
      "outputs": [],
      "payable": false,
      "stateMutability": "nonpayable",
      "type": "function"
    },
    {
      "constant": true,
      "inputs": [
        {
          "internalType": "address",
          "name": "_addr",
          "type": "address"
        },
        {
          "internalType": "string",
          "name": "email",
          "type": "string"
        },
        {
          "internalType": "string",
          "name": "password",
          "type": "string"
        }
      ],
      "name": "getUser",
      "outputs": [
        {
          "components": [
            {
              "internalType": "address",
              "name": "userAddress",
              "type": "address"
            },
            {
              "internalType": "string",
              "name": "email",
              "type": "string"
            },
            {
              "internalType": "string",
              "name": "password",
              "type": "string"
            }
          ],
          "internalType": "struct DStorage.User",
          "name": "",
          "type": "tuple"
        }
      ],
      "payable": false,
      "stateMutability": "view",
      "type": "function"
    },
    {
      "constant": false,
      "inputs": [
        {
          "internalType": "string",
          "name": "_fileHash",
          "type": "string"
        },
        {
          "internalType": "uint256",
          "name": "_fileSize",
          "type": "uint256"
        },
        {
          "internalType": "string",
          "name": "_fileType",
          "type": "string"
        },
        {
          "internalType": "string",
          "name": "_fileName",
          "type": "string"
        },
        {
          "internalType": "string",
          "name": "_fileDescription",
          "type": "string"
        }
      ],
      "name": "uploadFile",
      "outputs": [],
      "payable": false,
      "stateMutability": "nonpayable",
      "type": "function"
    },
    {
      "constant": true,
      "inputs": [],
      "name": "getFiles",
      "outputs": [
        {
          "components": [
            {
              "internalType": "uint256",
              "name": "fileId",
              "type": "uint256"
            },
            {
              "internalType": "string",
              "name": "fileHash",
              "type": "string"
            },
            {
              "internalType": "uint256",
              "name": "fileSize",
              "type": "uint256"
            },
            {
              "internalType": "string",
              "name": "fileType",
              "type": "string"
            },
            {
              "internalType": "string",
              "name": "fileName",
              "type": "string"
            },
            {
              "internalType": "string",
              "name": "fileDescription",
              "type": "string"
            },
            {
              "internalType": "uint256",
              "name": "uploadTime",
              "type": "uint256"
            },
            {
              "internalType": "address payable",
              "name": "uploader",
              "type": "address"
            }
          ],
          "internalType": "struct DStorage.File[]",
          "name": "filteredFiles",
          "type": "tuple[]"
        }
      ],
      "payable": false,
      "stateMutability": "view",
      "type": "function"
    },
    {
      "constant": true,
      "inputs": [
        {
          "internalType": "string",
          "name": "a",
          "type": "string"
        },
        {
          "internalType": "string",
          "name": "b",
          "type": "string"
        }
      ],
      "name": "compareStrings",
      "outputs": [
        {
          "internalType": "bool",
          "name": "",
          "type": "bool"
        }
      ],
      "payable": false,
      "stateMutability": "view",
      "type": "function"
    }
  ],
  "bytecode": "0x60806040526040518060400160405280600881526020017f4453746f7261676500000000000000000000000000000000000000000000000081525060009080519060200190620000519291906200006b565b5060006001553480156200006457600080fd5b506200011a565b828054600181600116156101000203166002900490600052602060002090601f016020900481019282601f10620000ae57805160ff1916838001178555620000df565b82800160010185558215620000df579182015b82811115620000de578251825591602001919060010190620000c1565b5b509050620000ee9190620000f2565b5090565b6200011791905b8082111562000113576000816000905550600101620000f9565b5090565b90565b611a0b806200012a6000396000f3fe608060405234801561001057600080fd5b50600436106100885760003560e01c8063928122361161005b5780639281223614610103578063bed34bba14610133578063e82d9d3314610163578063f4c714b41461017f57610088565b806306fdde031461008d5780632da96d73146100ab57806343953519146100c95780634ceb48fd146100e7575b600080fd5b6100956101b6565b6040516100a29190611685565b60405180910390f35b6100b3610254565b6040516100c09190611648565b60405180910390f35b6100d16106e5565b6040516100de91906116c9565b60405180910390f35b61010160048036036100fc919081019061116b565b6106eb565b005b61011d6004803603610118919081019061116b565b6107f0565b60405161012a91906116a7565b60405180910390f35b61014d600480360361014891908101906111ea565b610a73565b60405161015a919061166a565b60405180910390f35b61017d60048036036101789190810190611256565b610acc565b005b6101996004803603610194919081019061132d565b610cee565b6040516101ad98979695949392919061177e565b60405180910390f35b60008054600181600116156101000203166002900480601f01602080910402602001604051908101604052809291908181526020018280546001816001161561010002031660029004801561024c5780601f106102215761010080835404028352916020019161024c565b820191906000526020600020905b81548152906001019060200180831161022f57829003601f168201915b505050505081565b60608060015460405190808252806020026020018201604052801561029357816020015b610280610fb6565b8152602001906001900390816102785790505b509050600080905060008090505b60015481101561065b573373ffffffffffffffffffffffffffffffffffffffff166002600083815260200190815260200160002060070160009054906101000a900473ffffffffffffffffffffffffffffffffffffffff1673ffffffffffffffffffffffffffffffffffffffff16141561064e57600260008281526020019081526020016000206040518061010001604052908160008201548152602001600182018054600181600116156101000203166002900480601f0160208091040260200160405190810160405280929190818152602001828054600181600116156101000203166002900480156103d75780601f106103ac576101008083540402835291602001916103d7565b820191906000526020600020905b8154815290600101906020018083116103ba57829003601f168201915b5050505050815260200160028201548152602001600382018054600181600116156101000203166002900480601f0160208091040260200160405190810160405280929190818152602001828054600181600116156101000203166002900480156104835780601f1061045857610100808354040283529160200191610483565b820191906000526020600020905b81548152906001019060200180831161046657829003601f168201915b50505050508152602001600482018054600181600116156101000203166002900480601f0160208091040260200160405190810160405280929190818152602001828054600181600116156101000203166002900480156105255780601f106104fa57610100808354040283529160200191610525565b820191906000526020600020905b81548152906001019060200180831161050857829003601f168201915b50505050508152602001600582018054600181600116156101000203166002900480601f0160208091040260200160405190810160405280929190818152602001828054600181600116156101000203166002900480156105c75780601f1061059c576101008083540402835291602001916105c7565b820191906000526020600020905b8154815290600101906020018083116105aa57829003601f168201915b50505050508152602001600682015481526020016007820160009054906101000a900473ffffffffffffffffffffffffffffffffffffffff1673ffffffffffffffffffffffffffffffffffffffff1673ffffffffffffffffffffffffffffffffffffffff168152505083838151811061063c57fe5b60200260200101819052506001820191505b80806001019150506102a1565b508060405190808252806020026020018201604052801561069657816020015b610683610fb6565b81526020019060019003908161067b5790505b50925060008090505b818110156106df578281815181106106b357fe5b60200260200101518482815181106106c757fe5b6020026020010181905250808060010191505061069f565b50505090565b60015481565b6106f3611011565b60405180606001604052808573ffffffffffffffffffffffffffffffffffffffff16815260200184815260200183815250905080600360008673ffffffffffffffffffffffffffffffffffffffff1673ffffffffffffffffffffffffffffffffffffffff16815260200190815260200160002060008201518160000160006101000a81548173ffffffffffffffffffffffffffffffffffffffff021916908373ffffffffffffffffffffffffffffffffffffffff16021790555060208201518160010190805190602001906107c9929190611048565b5060408201518160020190805190602001906107e6929190611048565b5090505050505050565b6107f8611011565b610800611011565b600360008673ffffffffffffffffffffffffffffffffffffffff1673ffffffffffffffffffffffffffffffffffffffff1681526020019081526020016000206040518060600160405290816000820160009054906101000a900473ffffffffffffffffffffffffffffffffffffffff1673ffffffffffffffffffffffffffffffffffffffff1673ffffffffffffffffffffffffffffffffffffffff168152602001600182018054600181600116156101000203166002900480601f0160208091040260200160405190810160405280929190818152602001828054600181600116156101000203166002900480156109395780601f1061090e57610100808354040283529160200191610939565b820191906000526020600020905b81548152906001019060200180831161091c57829003601f168201915b50505050508152602001600282018054600181600116156101000203166002900480601f0160208091040260200160405190810160405280929190818152602001828054600181600116156101000203166002900480156109db5780601f106109b0576101008083540402835291602001916109db565b820191906000526020600020905b8154815290600101906020018083116109be57829003601f168201915b50505050508152505090506109f4816020015185610a73565b8015610a0a5750610a09816040015184610a73565b5b15610a185780915050610a6c565b6040518060600160405280600073ffffffffffffffffffffffffffffffffffffffff168152602001604051806020016040528060008152508152602001604051806020016040528060008152508152509150505b9392505050565b600081604051602001610a869190611631565b6040516020818303038152906040528051906020012083604051602001610aad9190611631565b6040516020818303038152906040528051906020012014905092915050565b6000855111610ada57600080fd5b6000835111610ae857600080fd5b6000815111610af657600080fd5b6000825111610b0457600080fd5b600073ffffffffffffffffffffffffffffffffffffffff163373ffffffffffffffffffffffffffffffffffffffff161415610b3e57600080fd5b60008411610b4b57600080fd5b60016000815480929190600101919050555060405180610100016040528060015481526020018681526020018581526020018481526020018381526020018281526020014281526020013373ffffffffffffffffffffffffffffffffffffffff16815250600260006001548152602001908152602001600020600082015181600001556020820151816001019080519060200190610bea929190611048565b50604082015181600201556060820151816003019080519060200190610c11929190611048565b506080820151816004019080519060200190610c2e929190611048565b5060a0820151816005019080519060200190610c4b929190611048565b5060c0820151816006015560e08201518160070160006101000a81548173ffffffffffffffffffffffffffffffffffffffff021916908373ffffffffffffffffffffffffffffffffffffffff1602179055509050507f6e95bbaa37a5fdec42a312e049dea2fe6160ebe659214d3409b4f91f164c2f5260015486868686864233604051610cdf9897969594939291906116e4565b60405180910390a15050505050565b6002602052806000526040600020600091509050806000015490806001018054600181600116156101000203166002900480601f016020809104026020016040519081016040528092919081815260200182805460018160011615610100020316600290048015610da05780601f10610d7557610100808354040283529160200191610da0565b820191906000526020600020905b815481529060010190602001808311610d8357829003601f168201915b505050505090806002015490806003018054600181600116156101000203166002900480601f016020809104026020016040519081016040528092919081815260200182805460018160011615610100020316600290048015610e445780601f10610e1957610100808354040283529160200191610e44565b820191906000526020600020905b815481529060010190602001808311610e2757829003601f168201915b505050505090806004018054600181600116156101000203166002900480601f016020809104026020016040519081016040528092919081815260200182805460018160011615610100020316600290048015610ee25780601f10610eb757610100808354040283529160200191610ee2565b820191906000526020600020905b815481529060010190602001808311610ec557829003601f168201915b505050505090806005018054600181600116156101000203166002900480601f016020809104026020016040519081016040528092919081815260200182805460018160011615610100020316600290048015610f805780601f10610f5557610100808354040283529160200191610f80565b820191906000526020600020905b815481529060010190602001808311610f6357829003601f168201915b5050505050908060060154908060070160009054906101000a900473ffffffffffffffffffffffffffffffffffffffff16905088565b60405180610100016040528060008152602001606081526020016000815260200160608152602001606081526020016060815260200160008152602001600073ffffffffffffffffffffffffffffffffffffffff1681525090565b6040518060600160405280600073ffffffffffffffffffffffffffffffffffffffff16815260200160608152602001606081525090565b828054600181600116156101000203166002900490600052602060002090601f016020900481019282601f1061108957805160ff19168380011785556110b7565b828001600101855582156110b7579182015b828111156110b657825182559160200191906001019061109b565b5b5090506110c491906110c8565b5090565b6110ea91905b808211156110e65760008160009055506001016110ce565b5090565b90565b6000813590506110fc8161199a565b92915050565b600082601f83011261111357600080fd5b813561112661112182611845565b611818565b9150808252602083016020830185838301111561114257600080fd5b61114d838284611947565b50505092915050565b600081359050611165816119b1565b92915050565b60008060006060848603121561118057600080fd5b600061118e868287016110ed565b935050602084013567ffffffffffffffff8111156111ab57600080fd5b6111b786828701611102565b925050604084013567ffffffffffffffff8111156111d457600080fd5b6111e086828701611102565b9150509250925092565b600080604083850312156111fd57600080fd5b600083013567ffffffffffffffff81111561121757600080fd5b61122385828601611102565b925050602083013567ffffffffffffffff81111561124057600080fd5b61124c85828601611102565b9150509250929050565b600080600080600060a0868803121561126e57600080fd5b600086013567ffffffffffffffff81111561128857600080fd5b61129488828901611102565b95505060206112a588828901611156565b945050604086013567ffffffffffffffff8111156112c257600080fd5b6112ce88828901611102565b935050606086013567ffffffffffffffff8111156112eb57600080fd5b6112f788828901611102565b925050608086013567ffffffffffffffff81111561131457600080fd5b61132088828901611102565b9150509295509295909350565b60006020828403121561133f57600080fd5b600061134d84828501611156565b91505092915050565b600061136283836114f7565b905092915050565b611373816118ff565b82525050565b611382816118ff565b82525050565b611391816118ed565b82525050565b60006113a282611881565b6113ac81856118af565b9350836020820285016113be85611871565b8060005b858110156113fa57848403895281516113db8582611356565b94506113e6836118a2565b925060208a019950506001810190506113c2565b50829750879550505050505092915050565b61141581611911565b82525050565b600061142682611897565b61143081856118d1565b9350611440818560208601611956565b61144981611989565b840191505092915050565b600061145f82611897565b61146981856118e2565b9350611479818560208601611956565b80840191505092915050565b60006114908261188c565b61149a81856118c0565b93506114aa818560208601611956565b6114b381611989565b840191505092915050565b60006114c98261188c565b6114d381856118d1565b93506114e3818560208601611956565b6114ec81611989565b840191505092915050565b6000610100830160008301516115106000860182611613565b50602083015184820360208601526115288282611485565b915050604083015161153d6040860182611613565b50606083015184820360608601526115558282611485565b9150506080830151848203608086015261156f8282611485565b91505060a083015184820360a08601526115898282611485565b91505060c083015161159e60c0860182611613565b5060e08301516115b160e086018261136a565b508091505092915050565b60006060830160008301516115d46000860182611388565b50602083015184820360208601526115ec8282611485565b915050604083015184820360408601526116068282611485565b9150508091505092915050565b61161c8161193d565b82525050565b61162b8161193d565b82525050565b600061163d8284611454565b915081905092915050565b600060208201905081810360008301526116628184611397565b905092915050565b600060208201905061167f600083018461140c565b92915050565b6000602082019050818103600083015261169f81846114be565b905092915050565b600060208201905081810360008301526116c181846115bc565b905092915050565b60006020820190506116de6000830184611622565b92915050565b6000610100820190506116fa600083018b611622565b818103602083015261170c818a61141b565b905061171b6040830189611622565b818103606083015261172d818861141b565b90508181036080830152611741818761141b565b905081810360a0830152611755818661141b565b905061176460c0830185611622565b61177160e0830184611379565b9998505050505050505050565b600061010082019050611794600083018b611622565b81810360208301526117a6818a6114be565b90506117b56040830189611622565b81810360608301526117c781886114be565b905081810360808301526117db81876114be565b905081810360a08301526117ef81866114be565b90506117fe60c0830185611622565b61180b60e0830184611379565b9998505050505050505050565b6000604051905081810181811067ffffffffffffffff8211171561183b57600080fd5b8060405250919050565b600067ffffffffffffffff82111561185c57600080fd5b601f19601f8301169050602081019050919050565b6000819050602082019050919050565b600081519050919050565b600081519050919050565b600081519050919050565b6000602082019050919050565b600082825260208201905092915050565b600082825260208201905092915050565b600082825260208201905092915050565b600081905092915050565b60006118f88261191d565b9050919050565b600061190a8261191d565b9050919050565b60008115159050919050565b600073ffffffffffffffffffffffffffffffffffffffff82169050919050565b6000819050919050565b82818337600083830152505050565b60005b83811015611974578082015181840152602081019050611959565b83811115611983576000848401525b50505050565b6000601f19601f8301169050919050565b6119a3816118ed565b81146119ae57600080fd5b50565b6119ba8161193d565b81146119c557600080fd5b5056fea365627a7a72315820c45f1880ef91afc61b830c0835c13697b228c27a8f8aa81b6f41b163e38fb5e06c6578706572696d656e74616cf564736f6c63430005100040",
  "source": "pragma solidity ^0.5.0;\r\npragma experimental ABIEncoderV2;\r\n\r\ncontract DStorage {\r\n    string public name = \"DStorage\";\r\n    uint256 public fileCount = 0;\r\n    mapping(uint256 => File) public files;\r\n    mapping(address => User) users;\r\n    struct File {\r\n        uint256 fileId;\r\n        string fileHash;\r\n        uint256 fileSize;\r\n        string fileType;\r\n        string fileName;\r\n        string fileDescription;\r\n        uint256 uploadTime;\r\n        address payable uploader;\r\n    }\r\n\r\n    struct User {\r\n        address userAddress;\r\n        string email;\r\n        string password;\r\n    }\r\n\r\n    event FileUploaded(\r\n        uint256 fileId,\r\n        string fileHash,\r\n        uint256 fileSize,\r\n        string fileType,\r\n        string fileName,\r\n        string fileDescription,\r\n        uint256 uploadTime,\r\n        address payable uploader\r\n    );\r\n\r\n    constructor() public {}\r\n\r\n    function createUser(\r\n        address _addr,\r\n        string memory email,\r\n        string memory password\r\n    ) public {\r\n        User memory user = User(_addr, email, password);\r\n        users[_addr] = user;\r\n    }\r\n\r\n    function getUser(\r\n        address _addr,\r\n        string memory email,\r\n        string memory password\r\n    ) public view returns (User memory) {\r\n        User memory user = users[_addr];\r\n        if (\r\n            compareStrings(user.email, email) &&\r\n            compareStrings(user.password, password)\r\n        ) {\r\n            return user;\r\n        } else {\r\n            return User(address(0), \"\", \"\");\r\n        }\r\n    }\r\n\r\n    function uploadFile(\r\n        string memory _fileHash,\r\n        uint256 _fileSize,\r\n        string memory _fileType,\r\n        string memory _fileName,\r\n        string memory _fileDescription\r\n    ) public {\r\n        // Make sure the file hash exists\r\n        require(bytes(_fileHash).length > 0);\r\n        // Make sure file type exists\r\n        require(bytes(_fileType).length > 0);\r\n        // Make sure file description exists\r\n        require(bytes(_fileDescription).length > 0);\r\n        // Make sure file fileName exists\r\n        require(bytes(_fileName).length > 0);\r\n        // Make sure uploader address exists\r\n        require(msg.sender != address(0));\r\n        // Make sure file size is more than 0\r\n        require(_fileSize > 0);\r\n\r\n        // Increment file id\r\n        fileCount++;\r\n\r\n        // Add File to the contract\r\n        files[fileCount] = File(\r\n            fileCount,\r\n            _fileHash,\r\n            _fileSize,\r\n            _fileType,\r\n            _fileName,\r\n            _fileDescription,\r\n            now,\r\n            msg.sender\r\n        );\r\n        // Trigger an event\r\n        emit FileUploaded(\r\n            fileCount,\r\n            _fileHash,\r\n            _fileSize,\r\n            _fileType,\r\n            _fileName,\r\n            _fileDescription,\r\n            now,\r\n            msg.sender\r\n        );\r\n    }\r\n\r\n    function getFiles() public view returns (File[] memory filteredFiles) {\r\n        File[] memory filesTemp = new File[](fileCount);\r\n        uint256 count = 0;\r\n\r\n        for (uint256 i = 0; i < fileCount; i++) {\r\n            if (files[i].uploader == msg.sender) {\r\n                filesTemp[count] = files[i];\r\n                count += 1;\r\n            }\r\n        }\r\n\r\n        filteredFiles = new File[](count);\r\n        for (uint256 i = 0; i < count; i++) {\r\n            filteredFiles[i] = filesTemp[i];\r\n        }\r\n    }\r\n\r\n    function compareStrings(string memory a, string memory b)\r\n        public\r\n        view\r\n        returns (bool)\r\n    {\r\n        return (keccak256(abi.encodePacked((a))) ==\r\n            keccak256(abi.encodePacked((b))));\r\n    }\r\n}\r\n",
  "sourcePath": "G:/Blockchain Developement/dstorage/src/contracts/DStorage.sol",
  "compiler": {
    "name": "solc",
    "version": "0.5.16+commit.9c3226ce.Emscripten.clang"
  },
  "schemaVersion": "3.4.1",
  "updatedAt": "2022-03-31T12:48:14.382Z",
  "networkType": "ethereum",
  "devdoc": {
    "methods": {}
  },
  "userdoc": {
    "methods": {}
  }
}